:060000000A128A11122809
:10000800FE00030EF7000408F8000A08F90083123E
:1000180003137F08FA000A128A1133290A128A1177
:1000280015280A128A11FF220A128A11B2000A122E
:100038008A1100230A128A11B3000A128A110123B5
:10004800FD00A001A101A201A301A401A501A6012F
:10005800A701A801A901AA01AB01AC01AD01FB01EF
:10006800FC0183010A128A11392883120313B10192
:10007800B10A0A128A11DA220A128A110A128A119C
:10008800F2220A128A1183120313AC01AB01AA01EE
:10009800A9017B1D4D287B11FB117B12FB12FB1361
:1000A800831203132D0303197B1BC428FC1C8D2802
:1000B8007C1C6C282808B0003008AC002708B00069
:1000C8003008AB002608B0003008AA0025087B28B5
:1000D8007C187E282408B0003008AC002308B00043
:1000E8003008AB002208B0003008AA002108B00090
:1000F8003008A9007C080139B000B00DB00D7C08AB
:100108003006FB393006FC00A001A00AFC10FC15E3
:10011800D528FC1DB2287C1DA2282C08B000300868
:10012800A8002B08B0003008A7002A08B000300843
:10013800A6002908B0003008A500B2282C08B00095
:100148003008A4002B08B0003008A3002A08B0002B
:100158003008A2002908B0003008A100A0017C14D2
:10016800A9011030B0003008AA001230B0003008E1
:10017800AB001230B0003008AC00FC14FC11D528DC
:1001880002302D0603197B1BD528FC1DD52801300C
:10019800B0003008B10705303102031CD528B10181
:1001A800B10A03302D06031DFF282808031DE42883
:1001B8002708031DE4282608031925080319FC2825
:1001C8007B1BFC287C162808B0003008AC002708E8
:1001D800B0003008AB002608B0003008AA00250897
:1001E800B0003008A9007B178716A001A00AFF28D5
:1001F8007B1FFF287B1304302D0603197B1B2F2937
:10020800FC1C27297C080139B0000130B0067C08A5
:100218003006FE393006FC007C181929A9010F3078
:10022800B0003008AA000F301F29A9011030B00013
:100238003008AA001230B0003008AB001230B0000D
:100248003008AC002F29FC1D2F2931080A128A1109
:1002580054220A128A1183120313AD014D280B1D73
:1002680095290B11063081000A128A11A2210A125F
:100278008A11013083120313B2020030031CB30346
:10028800B30232083304031D5629E830B2000330A4
:10029800B300FB147B1F95290A128A1101220A1246
:1002A8008A1195296430F0000030F100831203139D
:1002B8003308F3003208F2000A128A118F220A1258
:1002C8008A1170087104031D9529831203130718F6
:1002D8007429FB1D71297B157229FB15AD01AD0A27
:1002E80087187F297B1E7A297B157B297B1602308C
:1002F800F6007608AD0007198A29FB1E85297B15AB
:100308008629FB160330F6007608AD008719952973
:10031800FB1F90297B159129FB170430F6007608FE
:10032800AD007A0883120313FF0079088A00780861
:100338008400770E8300FE0E7E0E0900F2298312D8
:100348000313071685120713871386012C08013E2D
:1003580084000A128A11C122FF3A86000230F00096
:100368007008FD000800831203130712851607138F
:10037800871386012B08013E84000A128A11C122C4
:100388008038FF3A86000330F0007008FD0008004E
:1003980083120313071285120717871386012A0889
:1003A800013E84000A128A11C122FF3A86000430F5
:1003B800F0007008FD00080083120313071285126D
:1003C8000713871786012908013E84000A128A113B
:1003D800C122FF3A8600FD01FD0A08007D08013AA6
:1003E8000319A329033A0319B729013A0319CC2998
:1003F800073A0319E029002A080001308312031381
:10040800AC022C0A031D08000930F0007008AC008B
:100418000130AB022B0A031D08000530F0007008FC
:10042800AB000130AA022A0A031D08000930F000B7
:100438007008AA000130A902290A031D08007C0ED1
:100448000139F0000130F006F00E7C087006EF3933
:100458007006FC007C1E3E2A2808F0007008AC00DC
:100468002708F0007008AB002608F0007008AA0002
:1004780025084B2A2408F0007008AC002308F00077
:100488007008AB002208F0007008AA002108F000EC
:100498007008A9007C1E522A8716080087120800D7
:1004A80083120313AF00802A0130AE002E08AC0778
:1004B8000A302C02031C0800AC0108000130AE0011
:1004C8002E08AB0706302B02031C0800AB010800FE
:1004D8000130AE002E08AA070A302A02031C0800C1
:1004E800AA0108000130AE002E08A9070A30290227
:1004F800031C0800A90108002F08013A0319582A0B
:10050800033A0319622A013A03196C2A073A0319B4
:10051800762A8E2A0800700871040319BC2AF5018E
:10052800F50AF11BA32A01300310F00DF10DFF3E6F
:10053800031D982A0130F4007408F507952A7108FC
:100548007302031DA92A70087202031CB12A7008DD
:10055800F2027108031CF303F30201300310F10CDB
:10056800F00CFF3E031DB22A0130F502031DA32A39
:100578007308F1007208F000080002308A000408CD
:10058800840A82070034C034F934A434B03499346E
:1005980092348234F834803490348834FC34C6344D
:1005A800A13486348E342B34C734FF3483160313B6
:1005B80007148714071587158712831203138712E8
:1005C80083160313071285120713871386018312F4
:1005D80003130712851207138713080006308312C6
:1005E8000313810002308316031381000B118B164D
:0C05F8008B170B170800E83403340134A3
:02400E0039FF78
:00000001FF
